:100000000C9458000C9480000C9480000C94800098
:100010000C9480000C9480000C9480000C94800060
:100020000C9480000C9480000C9480000C94800050
:100030000C9480000C9480000C9480000C94800040
:100040000C9416050C9480000C94E4040C94BE04EB
:100050000C9480000C9480000C9480000C94800020
:100060000C9460050C94800000000000250028001E
:100070002B00040404040404040402020202020229
:10008000030303030303010204081020408001025C
:1000900004081020010204081020000000080002DB
:1000A00001000003040700000000000000007F06BC
:1000B00011241FBECFEFD8E0DEBFCDBF22E0A2E704
:1000C000B1E001C01D92A23EB207E1F711E0A0E04D
:1000D000B1E0ECEDF6E102C005900D92A237B10758
:1000E000D9F710E0C8E5D0E004C02197FE010E94D6
:1000F0007409C735D107C9F70E94B8060C946C0B78
:100100000C94000008950895AF92BF92CF92DF92B1
:10011000EF92FF920F931F93CF93DF936C017B01BC
:100120008B01040F151FEB015E01AE18BF08C0174D
:10013000D10759F06991D601ED91FC910190F081C0
:10014000E02DC6010995892B79F7C501DF91CF9183
:100150001F910F91FF90EF90DF90CF90BF90AF90E5
:100160000895FC01538D448D252F30E0842F90E0BD
:10017000821B930B541710F0CF96089501970895A2
:10018000FC01918D828D981761F0A28DAE0FBF2F6B
:10019000B11D5D968C91928D9F5F9F73928F90E0C1
:1001A00008958FEF9FEF0895FC01918D828D981730
:1001B00031F0828DE80FF11D858D90E008958FEF6D
:1001C0009FEF0895FC01918D228D892F90E0805C36
:1001D0009F4F821B91098F739927089585E392E0C1
:1001E0000E94E20021E0892B09F420E0822F08958B
:1001F00080E090E0892B29F00E94EE0081110C94A0
:1002000000000895FC01A48DA80FB92FB11DA35AB9
:10021000BF4F2C91848D90E001968F739927848F26
:10022000A689B7892C93A089B1898C918370806449
:100230008C93938D848D981306C00288F389E02DEA
:1002400080818F7D80830895EF92FF920F931F939B
:10025000CF93DF93EC0181E0888F9B8D8C8D981379
:100260001AC0E889F989808185FF15C09FB7F89485
:10027000EE89FF896083E889F989808183708064D1
:1002800080839FBF81E090E0DF91CF911F910F911C
:10029000FF90EF900895F62E0B8D10E00F5F1F4F2B
:1002A0000F731127E02E8C8D8E110CC00FB607FC3A
:1002B000FACFE889F989808185FFF5CFCE010E94C8
:1002C0000201F1CFEB8DEC0FFD2FF11DE35AFF4F33
:1002D000F0829FB7F8940B8FEA89FB898081806256
:1002E000CFCFCF93DF93EC01888D8823B9F0AA8913
:1002F000BB89E889F9898C9185FD03C0808186FDE1
:100300000DC00FB607FCF7CF8C9185FFF2CF80812F
:1003100085FFEDCFCE010E940201E9CFDF91CF91A1
:10032000089590E0FC01E656FF4F2491FC01EA5746
:10033000FF4F3491FC01EE58FF4FE491EE23C9F0DA
:10034000222339F0233001F1A8F4213019F12230B1
:1003500029F1F0E0EE0FFF1FE859FF4FA591B4918E
:100360008FB7F894EC91611126C030953E233C93F1
:100370008FBF08952730A9F02830C9F0243049F7FD
:10038000809180008F7D03C0809180008F77809363
:100390008000DFCF84B58F7784BDDBCF84B58F7DC0
:1003A000FBCF8091B0008F778093B000D2CF809147
:1003B000B0008F7DF9CF3E2BDACF3FB7F894809114
:1003C000BB019091BC01A091BD01B091BE0126B5C9
:1003D000A89B05C02F3F19F00196A11DB11D3FBF7D
:1003E000BA2FA92F982F8827BC01CD01620F711D4C
:1003F000811D911D42E0660F771F881F991F4A9546
:10040000D1F708958F929F92AF92BF92CF92DF92D1
:10041000EF92FF924B015C010E94DD016B017C01B8
:100420000E94DD016C197D098E099F09683E7340A9
:1004300081059105A8F321E0821A9108A108B1086D
:1004400088EEC80E83E0D81EE11CF11C81149104D3
:10045000A104B10429F7FF90EF90DF90CF90BF90F7
:10046000AF909F908F90089520919301260F33278E
:10047000331F21323105ECF420910B02FC0190E096
:1004800080E0243069F082E00895A09193012191E9
:10049000AC014D585E4FA40FB52FB11D2C930196A2
:1004A000861798F380919301680F6093930180E021
:1004B000089581E0089510920B0281E080930A0272
:1004C0001092E50161E082E10E94910161E083E127
:1004D0000E949101E9EBF0E080818E7F8083808132
:1004E0008D7F808388E48093B80085E48093BC008E
:1004F0000895CF93DF9391E0909372018823B9F030
:10050000C091B800D091BA008091BC008A7B8093E2
:10051000BC0060E082E10E94910160E083E10E9402
:1005200091010E945B02D093BA00C093B800DF91A2
:10053000CF9108958F929F92AF92BF92CF92DF9208
:10054000EF92FF920F931F93CF93DF93D0913402DA
:10055000D13208F0D7C0182FC09133020E94DD01BC
:100560006B017C0180910B0281116BC082E0809352
:100570000B0210930A028FEF809309021092080277
:10058000D0930702A3E1B2E0E7EEF1E080E0D813F8
:1005900091C01092E6018091E601CC0FC82BC09368
:1005A000E6018091E501813009F088C01092E501F3
:1005B0000E94DD016B017C018091E6018093BB000C
:1005C00080910D0290910E02A0910F02B091100245
:1005D000892B8A2B8B2BA1F00E94DD0100910D024B
:1005E00010910E0220910F02309110026C197D09BA
:1005F0008E099F09061717072807390708F442C014
:100600008091BC0083FDD8CF85EC8093BC000E9414
:10061000DD016B017C0180910B02823009F450C036
:10062000809109028F3F09F46FC0809109028032E6
:1006300009F46CC080910902803309F469C084E038
:1006400026C080910D0290910E02A0910F02B091F0
:100650001002892B8A2B8B2B09F484CF0E94DD0199
:1006600080900D0290900E02A0900F02B0901002A8
:100670006C197D098E099F0986169706A806B9068A
:1006800008F070CF80910C020E94790285E01092F0
:1006900012021092340210921102DF91CF911F9139
:1006A0000F91FF90EF90DF90CF90BF90AF909F9011
:1006B0008F9008959D9191938F5F69CF85EEA5CF1F
:1006C00080910D0290910E02A0910F02B091100244
:1006D000892B8A2B8B2B09F49ECF0E94DD01009180
:1006E0000D0210910E0220910F02309110026C1930
:1006F0007D098E099F09061717072807390708F093
:100700008ACFC0CF81E0C3CF80E0C1CF82E0BFCF2E
:1007100083E0BDCF0895E091C4018091C301E81743
:1007200030F4F0E0EB53FE4F808190E008958FEFBE
:100730009FEF08959091C4018091C3012FEF3FEF87
:10074000981748F4E92FF0E0EB53FE4F208130E09A
:100750009F5F9093C401C90108958091C301909156
:10076000C401891B990B0895CF92DF92EF92FF92FB
:100770000F931F93CF93DF937C01CB018A012091CC
:100780001102222389F0EB016B01C40ED51ECC159A
:10079000DD0569F06991D701ED91FC910190F0813F
:1007A000E02DC7010995F3CF642F0E943402C801E0
:1007B000DF91CF911F910F91FF90EF90DF90CF903D
:1007C0000895CF93DF931F92CDB7DEB76983209151
:1007D00011022223F9F020913402203258F021E056
:1007E00030E0FC013383228390E080E00F90DF91C2
:1007F000CF91089580911202E82FF0E0ED5EFD4F59
:10080000998190838F5F809312028093340281E0FC
:1008100090E0ECCF61E0CE0101960E943402F7CF68
:10082000682F82ED92E00C94E10390E080E008955F
:1008300042E050E06EE371E085E392E00C948400C6
:10084000CF93DF93EC0188819981009711F00E948A
:10085000160A198218821D821C821B821A82DF915D
:10086000CF9108950F931F93CF93DF93EC0188816D
:100870009981009759F02A813B812617370730F07C
:1008800081E0DF91CF911F910F9108958B016F5FF0
:100890007F4F0E949F0A009759F0998388831B839A
:1008A0000A832C813D81232B59F7FC011082E8CF6C
:1008B00080E0E7CFEF92FF920F931F93CF93DF93E8
:1008C0006115710541F480E0DF91CF911F910F9187
:1008D000FF90EF90089541155105B1F07B01EC01B7
:1008E0000C811D81040F151FB8010E94320488235A
:1008F00051F3288139818C819D81B701820F931F2B
:100900000E94650B1D830C8381E0DECF85ED809313
:10091000BC0080910D0290910E02A0910F02B09147
:1009200010020796A11DB11D23E0B695A7959795D6
:1009300087952A95D1F72091BC0024FD03C0109221
:100940000B02089540910D0250910E0260910F022A
:1009500070911002452B462B472B69F30097A10598
:10096000B10541F025E32A95F1F700000197A109AF
:10097000B109E1CF80910C020C9479021F920F9281
:100980000FB60F9211242F933F934F935F936F9362
:100990007F938F939F93AF93BF93EF93FF9385E3E1
:1009A00092E00E940201FF91EF91BF91AF919F9160
:1009B0008F917F916F915F914F913F912F910F9008
:1009C0000FBE0F901F9018951F920F920FB60F92A7
:1009D00011242F938F939F93EF93FF93E091450200
:1009E000F09146028081E0914B02F0914C0282FD31
:1009F0001BC0908180914E028F5F8F7320914F02B8
:100A0000821741F0E0914E02F0E0EB5CFD4F958FD4
:100A100080934E02FF91EF919F918F912F910F90B4
:100A20000FBE0F901F9018958081F4CF1F920F92E8
:100A30000FB60F9211242F933F938F939F93AF93F1
:100A4000BF938091B7019091B801A091B901B09185
:100A5000BA013091B60123E0230F2D3758F50196E6
:100A6000A11DB11D2093B6018093B7019093B801E9
:100A7000A093B901B093BA018091BB019091BC01E0
:100A8000A091BD01B091BE010196A11DB11D809341
:100A9000BB019093BC01A093BD01B093BE01BF9177
:100AA000AF919F918F913F912F910F900FBE0F901B
:100AB0001F90189526E8230F0296A11DB11DD2CFD5
:100AC0001F920F920FB60F9211242F933F934F93C3
:100AD0005F936F937F938F939F93AF93BF93EF93A6
:100AE000FF938091B900887F803609F44AC0F0F501
:100AF000883209F4A7C018F5803109F49BC0B8F416
:100B0000882309F4F9C0883009F494C0FF91EF916B
:100B1000BF91AF919F918F917F916F915F914F9115
:100B20003F912F910F900FBE0F901F901895883115
:100B300009F488C0803251F78093090214C08034D0
:100B400009F49DC040F48033B9F38833F9F68093FB
:100B5000090285ECB0C0803509F485C0883509F4F8
:100B600096C0883499F60E948604D0CF883909F45B
:100B70008CC038F5883729F050F4883611F080376A
:100B800029F683E080930B021092B50157C0883894
:100B900009F47BC0803919F0803809F0B7CF809113
:100BA000B501803208F071C0E091B50181E08E0F8F
:100BB0008093B5018091BB00F0E0EB56FE4F80833F
:100BC0003DC0803B39F0E0F4803A09F479C0883ABE
:100BD00009F09CCF84E080930B0210929401109254
:100BE0009301E091C101F091C201099580919301B7
:100BF00081110FC081E0809393011092730109C0AD
:100C0000803C09F4A6CF883C09F4A3CF883B09F0C7
:100C10007DCFE091940181E08E0F80939401F0E00C
:100C2000ED58FE4F80818093BB009091940180919C
:100C3000930129C08091E6018093BB0085EC8093ED
:100C4000BC0064CF9091080280910702981758F574
:100C5000E091080281E08E0F80930802F0E0E951F4
:100C6000FE4F8081E9CFE091080281E08E0F8093F2
:100C700008028091BB00F0E0E951FE4F8083909123
:100C80000802809107029817C8F285E8D8CFE09152
:100C9000080281E08E0F809308028091BB00F0E093
:100CA000E951FE4F808380910A0281115CCF81E07F
:100CB0008093E50184EA8093BC0010920B0226CF5A
:100CC00085EC8093BC0010920B028091B5018032BC
:100CD00030F4E091B501F0E0EB56FE4F10826091E8
:100CE000B50170E0E091BF01F091C00185E991E0AC
:100CF00009951092B5010ACF1092090234CFE5E3AD
:100D0000F2E01382128288EE93E0A0E0B0E08483E8
:100D10009583A683B7832EE131E03183208325ECD0
:100D200030E03587248724EC30E03787268720ECB5
:100D300030E0318B208B21EC30E0338B228B22ECA6
:100D400030E0358B248B26EC30E0378B268B118EF0
:100D5000128E138E148EE2EDF2E0138212828483DF
:100D60009583A683B78380E391E091838083089580
:100D7000CF93DF93CDB7DEB7AF970FB6F894DEBF52
:100D80000FBECDBF789484B5826084BD84B5816088
:100D900084BD85B5826085BD85B5816085BD809146
:100DA0006E00816080936E001092810080918100BE
:100DB00082608093810080918100816080938100B6
:100DC000809180008160809380008091B100846078
:100DD0008093B1008091B00081608093B0008091D9
:100DE0007A00846080937A0080917A008260809398
:100DF0007A0080917A00816080937A0080917A00F5
:100E0000806880937A001092C1001092C401109201
:100E1000C3010E945B0282E890E09093C20180933C
:100E2000C10183E890E09093C0018093BF01E091FD
:100E30004502F091460282E08083E0914102F09108
:100E400042021082E0914302F09144028FEC8083D1
:100E500010924D02E0914902F0914A0286E08083AF
:100E6000E0914702F0914802808180618083E091A7
:100E70004702F0914802808188608083E0914702B8
:100E8000F0914802808180688083E0914702F09170
:100E9000480280818F7D808384E1E6E0F1E0DE011D
:100EA000119601900D928A95E1F78E010F5F1F4F09
:100EB000F12CE12CBB24B39420E5C22EF801D19093
:100EC0008F01B0921102C09233021092120210925E
:100ED000340290E080E00E941004C7010E941004D8
:100EE0006D2D82ED92E00E94E10381E00E949A0262
:100EF00065E070E080E090E00E940202FFEFEF1AF0
:100F0000FF0A84E1E816F104C9F6D12CC12CBB24F8
:100F1000B39466246A9485EEA82E95EC792E8E0102
:100F20000B5E1F4F4E01ECE28E0E911CB09211022F
:100F3000F0E5F0933302109212021092340290E026
:100F400080E00E941004C6010E94100481E00E940B
:100F50009A020E94DD011B012C0180910B0281117C
:100F600060C0B0920B02B0920A0260920902109225
:100F7000080210920702B092E6018091E601806AB1
:100F80008093E6018091E501813009F007C110925C
:100F9000E5010E94DD011B012C018091E601809397
:100FA000BB0080910D0290910E02A0910F02B091B2
:100FB0001002892B8A2B8B2BA1F00E94DD0120913E
:100FC0000D0230910E0240910F02509110026219F1
:100FD000730984099509261737074807590708F444
:100FE00041C08091BC0083FDD8CF7092BC000E94AC
:100FF000DD011B012C0180910B02813009F4D1C06D
:10100000809108028111EFC080910802A7EEB1E043
:10101000E5ECF1E090E0981751F12D9121939F5F5D
:10102000FACF80910D0290910E02A0910F02B09123
:101030001002892B8A2B8B2B09F48FCF0E94DD01A4
:1010400020910D0230910E0240910F02509110023A
:101050006219730984099509261737074807590744
:1010600008F07BCF80910C020E94790280E0109200
:10107000C4018093C30182ED92E00E949A03582E2E
:101080001FA21EA219A618A61BA61AA64AE0B801FE
:10109000C6010E941309F80101900020E9F7319779
:1010A0007F01E01AF10AB701CE0186960E94320450
:1010B00081119BC0CE0186960E9420041E8A1D8A43
:1010C000188E1F8A1A8E198E61E170E0C8010E9485
:1010D0003204811192C0C8010E9420044AA55BA578
:1010E0006EA17FA1C8010E945A04811103C0C801EA
:1010F0000E94200442E050E063E571E0C8010E94D4
:101100005A04811103C0C8010E9420044AE0B401BE
:10111000852D90E00E940809F40101900020E9F774
:101120003197AF0148195909B401C8010E945A0406
:10113000811103C0C8010E942004498D5A8D6D8918
:101140007E8985E392E00E9484000E9418048D89C4
:101150009E89009711F00E94160A8EA19FA1009708
:1011600011F00E94160A64E670E080E090E00E94B0
:1011700002028FEFC81AD80AE4E1CE16D10409F0B2
:10118000D5CE0E9418044BE150E066E571E085E39E
:1011900092E00E9484000E941804FFCFA092BC003D
:1011A00026CF80910D0290910E02A0910F02B09176
:1011B0001002892B8A2B8B2B09F41DCF0E94DD0195
:1011C00020910D0230910E0240910F0250911002B9
:1011D00062197309840995092617370748075907C3
:1011E00008F009CF3FCF81E011CFFBA6EAA6B801F6
:1011F0008EA19FA10E94650B61CF81E190E09A8F43
:10120000898F61E471E08D899E890E94650B66CFAC
:10121000BB274A3031F4992322F4BDE290958195A1
:101220009F4F0C941409BB27FB015527AA27880F51
:10123000991FAA1FA41710F0A41B83955051B9F74A
:10124000A05DAA3308F0A95DA193009779F7B111C9
:10125000B1931192CB010C942D09DC01FC01672F95
:1012600071917723E1F7329704C07C916D9370837D
:101270006291AE17BF07C8F308952F923F924F9225
:101280005F926F927F928F929F92AF92BF92CF9216
:10129000DF92EF92FF920F931F93CF93DF93CDB71F
:1012A000DEB7CA1BDB0B0FB6F894DEBF0FBECDBF97
:1012B00009942A88398848885F846E847D848C8468
:1012C0009B84AA84B984C884DF80EE80FD800C8171
:1012D0001B81AA81B981CE0FD11D0FB6F894DEBF54
:1012E0000FBECDBFED010895EE0FFF1F0590F491E5
:1012F000E02D09940F931F93CF93DF9382309105D4
:1013000010F482E090E0E091E002F091E10230E040
:1013100020E0B0E0A0E0309799F42115310509F400
:101320004AC0281B390B24303105D8F58A819B81AE
:101330006115710589F1FB0193838283FE0111C060
:10134000408151810281138148175907E0F0481705
:10135000590799F4109761F012960C93129713960F
:101360001C933296CF01DF91CF911F910F91089579
:101370000093E0021093E102F4CF2115310551F002
:101380004217530738F0A901DB019A01BD01DF01C3
:10139000F801C1CFEF01F9CF9093E1028093E00211
:1013A000CDCFFE01E20FF31F8193919322503109BB
:1013B00039832883D7CF2091DE023091DF02232B9F
:1013C00041F420910201309103013093DF02209318
:1013D000DE0220910001309101012115310541F417
:1013E0002DB73EB74091040150910501241B350BE8
:1013F000E091DE02F091DF02E217F307A0F42E1B6A
:101400003F0B2817390778F0AC014E5F5F4F241768
:10141000350748F04E0F5F1F5093DF024093DE0206
:10142000819391939FCFF0E0E0E09CCFCF93DF9347
:101430000097E9F0FC01329713821282A091E0023A
:10144000B091E102ED0130E020E01097A1F420819D
:101450003181820F931F2091DE023091DF02281725
:10146000390709F061C0F093DF02E093DE02DF91FB
:10147000CF910895EA01CE17DF07E8F54A815B8135
:101480009E0141155105B1F7E901FB83EA834991BA
:101490005991C40FD51FEC17FD0761F4808191812C
:1014A0000296840F951FE901998388838281938135
:1014B0009B838A83F0E0E0E012968D919C911397D4
:1014C0000097B9F52D913C911197CD010296820FAD
:1014D000931F2091DE023091DF022817390739F679
:1014E000309751F51092E1021092E002B093DF02C2
:1014F000A093DE02BCCFD383C28340815181840F8D
:10150000951FC817D90761F44E5F5F4F8881998195
:10151000480F591F518340838A819B819383828323
:101520002115310509F0B0CFF093E102E093E0021C
:101530009ECFFD01DC01C0CF13821282D7CFB0E075
:10154000A0E0E5EAFAE00C943F098C01009751F421
:10155000CB010E947A098C01C801CDB7DEB7E0E16A
:101560000C945B09FC01E60FF71F9C012250310926
:10157000E217F30708F49DC0D901CD91DC911197D2
:10158000C617D70798F0C530D10530F3CE010497C0
:101590008617970708F3C61BD70B2297C193D193E1
:1015A0006D937C93CF010E94160AD6CF5B01AC1AD3
:1015B000BD0A4C018C0E9D1EA091E002B091E1028B
:1015C000512C412CF12CE12C109731F58091DE0249
:1015D0009091DF028815990509F05CC04616570600
:1015E00008F058C08091000190910101009741F4EA
:1015F0008DB79EB74091040150910501841B950B56
:10160000E817F90708F055C0F093DF02E093DE0217
:10161000F90171836083A0CF8D919C9111971296EF
:101620006C90129713967C901397A815B90559F5ED
:101630006C0142E0C40ED11CCA14DB0420F1AC01E1
:101640004A195B09DA011296159780F0628273825B
:1016500051834083D9016D937C93E114F10471F0BF
:10166000D7011396FC93EE93129776CF22968C0FA8
:101670009D1FF90191838083F301EFCFF093E10285
:10168000E093E00269CF4816590608F42C017D0169
:10169000D3019ACFCB010E947A097C01009749F0CF
:1016A000AE01B8010E945C0BC8010E94160A8701B6
:1016B00053CF10E000E050CFFB01DC0102C00190ED
:1016C0000D9241505040D8F70895FB01DC01019084
:0C16D0000D920020E1F70895F894FFCF80
:1016DC000000E20280000C192A225964E84C13CD58
:1016EC000205294A526EC9A745D00000000024010A
:1016FC008400B1007101E200C000D40000000000C1
:10170C00E103B40315048A03AD039A038B030D0A9A
:10171C000056616C75652061742041646472657358
:10172C007320003A20002D2D2D2D526561642F570A
:10173C007269746520436F6D706C6574652D2D2D09
:02174C002D006E
:00000001FF
